:100000000C9448000C94C10A0C9465000C94650093
:100010000C9465000C9465000C9465000C946500CC
:100020000C9465000C9465000C9465000C946500BC
:100030000C9465000C9465000C9465000C946500AC
:100040000C949C0A0C9465000C9465000C9465005B
:100050000C9465000C9465000C9465000C9465008C
:100060000C9465000C946500710D6E0D740D770D88
:100070007A0D7D0D800D830D860D890D8C0D8F0DF4
:10008000920D950D980D9B0D9E0DA10DA40DA70D24
:1000900011241FBECFEFD8E0DEBFCDBF16E0A0E039
:1000A000B1E0EAE8F6E202C005900D92AA36B10787
:1000B000D9F716E0AAE6B6E001C01D92A43BB1074D
:1000C000E1F70E9467000C9443130C9400002F92F8
:1000D0003F924F925F926F927F928F929F92AF92D8
:1000E000BF92CF92DF92EF92FF920F931F93DF9315
:1000F000CF93CDB7DEB729970FB6F894DEBF0FBE0A
:10010000CDBF19828FEF84B915B817B888B98EE6BC
:1001100096E00E94AE0D10926A0610926B06109245
:100120006C0610926D061092B9008CE08093B800B6
:1001300084E08093BC000E9499080E94780A789419
:1001400000D080E091E0ADB7BEB712969C938E933D
:1001500011970E94F50E0F900F9086E091E00E949B
:100160000A0FF89429E0E0E0F0E020935700349182
:10017000E3E0F0E0209357004491E2E0F0E02093C8
:1001800057005491E1E0F0E02093570024917894D7
:10019000EDB7FEB73A970FB6F894FEBF0FBEEDBFAE
:1001A00031968BE191E0ADB7BEB712969C938E93DA
:1001B00011973283138244831582568317822087D6
:1001C00011860E94F50EEDB7FEB73A960FB6F89479
:1001D000FEBF0FBEEDBF0E9416090E9497078091D7
:1001E0008706909188060E943E0780918A060E94A9
:1001F0007F0680ED97E020E931E0F9013197F1F7D2
:100200000197D9F7809189060E94C70680918606DA
:10021000882319F481E00E946A06BB24AA241E01E7
:100220000894211C311CB0E0CB2EB1E0DB2EABE5F5
:100230004A2EA2E05A2EF5EF6F2EF1E07F2EE0E974
:100240008E2EE1E09E2E8091A90680FF96C000D000
:10025000ADB7BEB71296DC92CE9211970E94F50E02
:100260008091A7069091A80600D000D0EDB7FEB708
:10027000319622E531E0ADB7BEB712963C932E938E
:10028000119782831382948315820E94F50E8091C8
:10029000A7066091A806ADB7BEB716960FB6F8943C
:1002A000BEBF0FBEADBF0E94E20D182F00D0EDB74C
:1002B000FEB7D282C1820E94F50E0F900F90812F5F
:1002C0000E94600DE12EFF2400D000D000D0EDB7D9
:1002D000FEB731962DE731E0ADB7BEB712963C932D
:1002E0002E93119793838283F582E4820E94F50E08
:1002F0008091A9068E7F8093A9068DB79EB706963A
:100300000FB6F8949EBF0FBE8DBF163009F4BAC069
:10031000173098F4123009F476C0133038F41123F2
:1003200009F457C0113009F073C278C0143009F4D1
:100330008DC0153008F091C07CC0123120F4183007
:1003400008F0DBC096C0133131F0133168F014317E
:1003500009F05EC275C22091870630918806ABE82D
:10036000B6E0E0E0F0E0FAC120918706309188061F
:10037000ABE8B6E0E0E0F0E090C180916A069091D1
:100380006B06A0916C06B0916D060097A105B105B2
:1003900009F456C20197A109B10980936A069093A6
:1003A0006B06A0936C06B0936D060097A105B1058E
:1003B00009F046C200D0ADB7BEB71296DC92CE921D
:1003C00011970E94F50E0F900F9080E991E00E9426
:1003D0000A0F80918606882339F010928606C101A3
:1003E0000E94E50781E004C0B1E0B093860680E09A
:1003F0000E946A0610926A0610926B0610926C06B2
:1004000010926D0620C080E00E94FD0688E893E10E
:10041000F4013197F1F70197D9F712C281E00E94F8
:10042000FD0688E893E1F4013197F1F70197D9F7D8
:1004300007C2809189068F3008F002C28F5F8093D7
:1004400089060E94C706BB24B394FAC1809189062D
:10045000823008F4F5C18150F2CF90E080918A0695
:10046000882309F491E090938A06892F0E947F06E1
:10047000EACF80916E06882309F0E2C18EE696E00D
:1004800063E007C080916E06882331F48EE696E023
:1004900061E00E94B30DD4C1823009F0D1C18091D6
:1004A00071068A3008F0CCC100D0EDB7FEB7D28219
:1004B000C1820E94F50E00D0EDB7FEB7319629EA51
:1004C00031E0ADB7BEB712963C932E931197809151
:1004D0007106828313820E94F50EE0917106F0E0AE
:1004E000EE0FFF1FEC57F94F809187069091880619
:1004F00090878783BB24B3949FC188EF9FEFE80E5A
:10050000F91E80916E06813009F467C0813008F4CD
:100510006CC0833009F09AC0809186068823F9F078
:10052000A8E9BAE3EA9EC001EB9E900DFA9E900DF9
:100530001124A0E0B0E080936A0690936B06A0932C
:100540006C06B0936D0600D0EDB7FEB7D282C182C3
:100550000E94F50E00D000D0EEEBF1E01EC0A8EB3B
:10056000BBE0EA9EC001EB9E900DFA9E900D112417
:10057000A0E0B0E080936A0690936B06A0936C06AF
:10058000B0936D0600D0EDB7FEB7D282C1820E9453
:10059000F50E00D000D0EAEDF1E0ADB7BEB712968F
:1005A000FC93EE93119780916A0690916B06A0914F
:1005B0006C06B0916D06EDB7FEB783839483A58377
:1005C000B6830E94F50E2DB73EB72A5F3F4F0FB698
:1005D000F8943EBF0FBE2DBF33C18EE696E062E0B9
:1005E0000E94B30DE09271062BC18701000F111F0D
:1005F0000C57194FD80117968D919C911897892BFC
:10060000C1F000D0EDB7FEB7D282C1820E94F50ED4
:1006100000D0ADB7BEB712967C926E921197149629
:10062000FC92EE9213970E94F50EF8018781908557
:1006300084C000D0ADB7BEB71296DC92CE921197AF
:100640000E94F50E00D02CE032E0EEC000D0ADB735
:10065000BEB71296DC92CE9211970E94F50E00D092
:1006600000D0EDB7FEB731962BE232E0ADB7BEB7A2
:1006700012963C932E931197F382E28280916E063C
:10068000848315820E94F50E8DB79EB706960FB62D
:10069000F8949EBF0FBE8DBFD3C08D919D918217E0
:1006A000930711F48F0106C03196EA30F105A9F7DE
:1006B00000E010E000D0ADB7BEB71296DC92CE924B
:1006C00011970E94F50E00D0EDB7FEB7528241821D
:1006D000148303830E94F50E20E030E00F900F900A
:1006E0000F900F9001501040FFEF0F3F1F0711F4C4
:1006F00009E010E0F801EE0FFF1FEC57F94F47E05B
:10070000E42EF12CEE0EFF1E87819085892B01F1DE
:1007100000D0ADB7BEB71296DC92CE9211970E9470
:10072000F50E00D0EDB7FEB77282618214830383A9
:100730000E94F50ED7018D919C919093880680932D
:1007400087060F900F900F900F900E943E077BCE70
:100750002F5F3F4F2930310529F672C08D919D9151
:100760008217930711F48F0106C03196EA30F10524
:10077000A9F709E010E000D0EDB7FEB7D282C18240
:100780000E94F50E00D0ADB7BEB712965C924E92A5
:10079000119714961C930E9313970E94F50E20E068
:1007A00030E00F900F900F900F900F5F1F4F0A30A7
:1007B000110510F000E010E0F801EE0FFF1FEC57FC
:1007C000F94F87E0E82EF12CEE0EFF1E8781908511
:1007D000892BC1F000D0EDB7FEB7D282C1820E9452
:1007E000F50E00D0ADB7BEB712967C926E921197FF
:1007F00014961C930E9313970E94F50EF7018081B7
:1008000091819BCF2F5F3F4F2930310571F618C082
:1008100000D0ADB7BEB71296DC92CE9211970E946F
:10082000F50E00D02FE632E0EDB7FEB7328321831C
:10083000F482E3820E94F50E0F900F900F900F90BC
:1008400088EC90E0F4013197F1F70197D9F7209106
:100850008606222359F08A2D90E08F719070892BA3
:1008600059F485B190E2892785B906C034E03A157C
:1008700010F02D9A01C02D98A39488ECA81609F0C9
:1008800064C0222309F449C0C1010E94E50700D0D9
:10089000ADB7BEB71296DC92CE9211970E94F50EBC
:1008A0002A813B81EDB7FEB770970FB6F894FEBF73
:1008B0000FBEEDBF319686E892E0ADB7BEB7129697
:1008C0009C938E931197C90164E670E00E94730EA9
:1008D00073836283C90164E670E00E94730E95839E
:1008E00084838C81868317828D81808711868E8197
:1008F000828713868F8184871586888586871786E9
:100900008985808B118A0E94F50EADB7BEB75296CD
:100910000FB6F894BEBF0FBEADBF8981882349F0E2
:1009200020918706309188068A819B812817390794
:1009300011F4BB2049F08A819B81909388068093B3
:1009400087060E94B008BB24AA248EE696E00E9487
:10095000C00D79CC84E98093BC008091BC0084FDFB
:10096000FCCF08951F938093BB0084E88093BC0064
:100970008091BC0087FFFCCF1091B900187F18321E
:1009800011F480E020C000D087EE92E0ADB7BEB792
:1009900012969C938E9311970E94F50E00D0EDB79E
:1009A000FEB731968CEE92E0ADB7BEB712969C932F
:1009B0008E931197128313820E94F50E81E00F909F
:1009C0000F900F900F901F9108951F938093BB007D
:1009D00084E88093BC008091BC0087FFFCCF10911D
:1009E000B900187F183119F1103409F100D087EEE1
:1009F00092E0ADB7BEB712969C938E9311970E946A
:100A0000F50E00D0EDB7FEB7319686E093E0ADB7B6
:100A1000BEB712969C938E931197128313820E94F5
:100A2000F50E81E00F900F900F900F9001C080E0C5
:100A30001F9108951F9384EA8093BC008091BC00AD
:100A400087FFFCCF1091B900187F183019F11031D1
:100A500009F100D087EE92E0ADB7BEB712969C9335
:100A60008E9311970E94F50E00D0EDB7FEB7319628
:100A700086E293E0ADB7BEB712969C938E93119722
:100A8000128313820E94F50E81E00F900F900F9059
:100A90000F9001C080E01F9108950F931F93CF9393
:100AA000DF9300D0C7E4D3E0ADB7BEB71296DC93B6
:100AB000CE9311970E94F50E0F900F9080E593E072
:100AC0000E940A0F0E941A05182F882309F08DC072
:100AD00000D0EDB7FEB7D283C1830E94F50E0F9010
:100AE0000F9086E593E00E940A0F80E20E94E504E1
:100AF000182F882371F000D0ADB7BEB71296DC93E3
:100B0000CE9311970E94F50E0F900F9083E693E01D
:100B10006AC01091B900187F1831E9F01034D9F08B
:100B200000D0EDB7FEB7D283C1830E94F50E00D08E
:100B3000EDB7FEB7319688E793E0ADB7BEB7129632
:100B40009C938E931197128313820E94F50E0F903F
:100B50000F900F900F9000D087E493E0EDB7FEB7B1
:100B6000928381830E94F50E0F900F908AE993E0A3
:100B70000E940A0FC3E7D6E0088189810E94B2046F
:100B8000182F882359F4802F0E94B204182F88232D
:100B900029F42396F6E0C538DF0771F700D087E423
:100BA00093E0ADB7BEB712969C938E9311970E94B7
:100BB000F50E0F900F9089EA93E00E940A0F84E9E6
:100BC0008093BC008091BC0084FDFCCF00D087E402
:100BD00093E0EDB7FEB7928381830E94F50E0F90EC
:100BE0000F908EEA93E00E940A0F812FDF91CF9140
:100BF0001F910F910895CF92DF92EF92FF920F9382
:100C00001F93082F00D097E4C92E93E0D92EEDB79B
:100C1000FEB7D282C1820E94F50E10E000D086EBB2
:100C200093E0EDB7FEB792838183148303830E9420
:100C3000F50E0F900F900F900F900E941A0582E210
:100C40000E94E5047801EE0CFF1CE00EF11E82E725
:100C500096E0E80EF91EF70181918F010E94B2041F
:100C6000F80181810E94B204F70181810E94B204DF
:100C70000E94AA0400D0EDB7FEB7D282C1820E94C2
:100C8000F50E0F900F908EEA93E00E940A0F1F91CD
:100C90000F91FF90EF90DF90CF90089500D087E400
:100CA00093E0EDB7FEB7928381830E94F50E0F901B
:100CB0000F9084EC93E00E940A0F8091730690914C
:100CC00074068E7F909374068093730680E00E9472
:100CD000FB050895882331F0809173069091740686
:100CE0009F7B05C0809173069091740690649093E9
:100CF00074068093730680E00E94FB0508951F939D
:100D0000CF93DF93182F00D0C7E4D3E0ADB7BEB7C1
:100D10001296DC93CE9311970E94F50E00D0EDB79A
:100D2000FEB731968DEC93E0ADB7BEB712969C93AB
:100D30008E931197128313820E94F50E0F900F90DD
:100D40000F900F90112399F400D0EDB7FEB7D28326
:100D5000C1830E94F50E0F900F908EED93E00E94DC
:100D60000A0F8091730690917406906205C080917D
:100D70007306909174069F7D90937406809373061A
:100D800080E00E94FB05DF91CF911F9108950F93A2
:100D90001F93082F00D087E493E0ADB7BEB712963B
:100DA0009C938E9311970E94F50E00D0EDB7FEB77D
:100DB00031968BEE93E0ADB7BEB712969C938E93AF
:100DC0001197028313820E94F50E10E00F701070CD
:100DD00080917C0690917D06807F082B192B1093C3
:100DE0007D0600937C060F900F900F900F9083E08C
:100DF0000E94FB051F910F9108951F93182F00D09B
:100E000087E493E0ADB7BEB712969C938E9311978B
:100E10000E94F50E00D0EDB7FEB731968CEF93E04F
:100E2000ADB7BEB712969C938E931197128313821F
:100E30000E94F50E0F900F900F900F90112331F03C
:100E40008091730690917406936006C0809173063A
:100E5000909174069D7F91609093740680937306C1
:100E600080E00E94FB0580917306909174069E7F3E
:100E700090937406809373061F910895EF92FF92EA
:100E80000F931F937C018C5F91426AE070E00E9497
:100E9000730E8B0100D087E493E0ADB7BEB7129616
:100EA0009C938E9311970E94F50E00D000D000D035
:100EB000EDB7FEB731968DE094E0ADB7BEB71296B0
:100EC0009C938E931197C70164E670E00E94730EA5
:100ED00073836283C70164E670E00E94730E95839A
:100EE0008483178306830E94F50E80917606909185
:100EF00077068F739070806126E0000F111F2A958E
:100F0000E1F7802B912B9093770680937606EDB7CF
:100F1000FEB738960FB6F894FEBF0FBEEDBF81E066
:100F20000E94FB051F910F91FF90EF90089500D054
:100F300087E493E0EDB7FEB7928381830E94F50EBC
:100F40000F900F908CE294E00E940A0F82E0809351
:100F5000720683E0809375061092770610927606EB
:100F600084E08093780610927A061092790685E0E4
:100F700080937B0680E898E890937D0680937C06BA
:100F800086E080937E061092800610927F0687E0AE
:100F90008093810682E092E4909383068093820698
:100FA00087E090EE909374068093730680E00E9431
:100FB000FB0580917306909174068D7F9093740663
:100FC000809373060E944D050895BF92CF92DF92E1
:100FD000EF92FF920F931F93DF93CF93CDB7DEB7BE
:100FE00068970FB6F894DEBF0FBECDBF7C01DC0161
:100FF0001C920E941A05B82E882309F07FC081E256
:101000000E94E504B82E882309F078C0FE013196CD
:101010008CE0DF011D928A95E9F76F018F0144E8AA
:1010200094EC9E01235F3F4F802F8E1B8B3019F075
:101030009093BC0002C04093BC008091BC0087FF2D
:10104000FCCF8091BB00D8018D938D01A217B3070F
:1010500059F78CE0FD0111928A95E9F70E94AA04E4
:10106000F801D6013C9120E011968C9190E0822B02
:10107000932B8193919382E090E0C80ED91EC01605
:10108000D10679F74D855E85CA0193709C0163E0B6
:10109000220F331F6A95E1F7880F991F280F391F18
:1010A00024503E4DD70112963C932E9311972F85D5
:1010B0009889892F869514968C931497852F8695F9
:1010C0008695817013968C931397287017962C939E
:1010D0001797917016969C931697852F82958695F3
:1010E0008695817015968C931597852F8295869598
:1010F000817018968C93189781E08C938B2D68964D
:101100000FB6F894DEBF0FBECDBFCF91DF911F9118
:101110000F91FF90EF90DF90CF90BF900895982FA0
:101120008091C00085FFFCCF9093C60080E090E0E6
:1011300008951092C50080E18093C400E0ECF0E0D7
:1011400080818260808388E18093C10086E0809303
:10115000C2008FE898E060E070E00E94A90E089558
:101160000F931F938091A0049091A104883C910556
:1011700019F484E690E002C088EC90E09093A1041A
:101180008093A004E4E8F6E02FEF3FEF8191282759
:10119000822F82958227082E869586958025082E97
:1011A000869580258770022E232F86950794879534
:1011B000302D2827069487953025282786E0EF399B
:1011C000F80721F7318320838F010B511040609184
:1011D000A0047091A104C8014DE150E00E942C11BF
:1011E00000D081E394E0EDB7FEB7928381830E9443
:1011F000F50E00D089E394E0EDB7FEB792838183CA
:10120000F80180819181EDB7FEB7948383830E94BA
:10121000F50EF801808191810196918380830F9072
:101220000F900F900F901F910F910895EF92FF92E2
:101230000F931F93DF93CF93CDB7DEB76D970FB6A4
:10124000F894DEBF0FBECDBF8E010F5F1F4FC801E8
:1012500064E670E04DE150E00E941C11F8010FEFD0
:101260001FEF9E01245E3F4F81910827802F8295BA
:101270008027082E869586958025082E86958025C0
:101280008770002E012F869507948795102D0827CB
:101290000694879510250827E217F30729F7EC8CA9
:1012A000FD8C84E896E068EC70E04DE150E00E942F
:1012B0001C11E4E8F6E02FEF3FEF81912827822F01
:1012C00082958227082E869586958025082E8695FC
:1012D00080258770022E232F869507948795302DC1
:1012E0002827069487953025282786E0EF39F807C8
:1012F00021F740E0808191812817390709F441E006
:101300000E151F0591F1442309F062C08DE1E4E858
:10131000F6E0DF011D928A95E9F71092850610929A
:10132000840621E02093860686E097E29093880663
:101330008093870688E08093890620938A0688EC4C
:1013400090E09093A1048093A00400D081E394E006
:10135000EDB7FEB7928381830E94F50E0F900F9038
:1013600080E594E00E940A0F7BC0442311F1409174
:1013700084065091850629813A81CA01821B930B0C
:1013800097FF0AC0A4E8B6E0FE0131968DE1019016
:101390000D928150E1F716C042175307C8F4A4E834
:1013A000B6E0FE0131968DE101900D928150E1F79A
:1013B00009C0A4E8B6E0FE0131968DE101900D92DE
:1013C0008150E1F784E690E09093A1048093A0041B
:1013D0008091890681508F3018F088E080938906CB
:1013E00000D081E394E0ADB7BEB712969C938E9384
:1013F00011970E94F50E00D000D000D0EDB7FEB7D7
:1014000031968FE694E0ADB7BEB712969C938E935B
:1014100011978091A0049091A1049383828380917D
:1014200087069091880664E670E00E94730E7583CB
:10143000648380918906868317820E94F50E8091CD
:101440008406909185060196909385068093840684
:10145000EDB7FEB738960FB6F894FEBF0FBEEDBFDE
:101460006D960FB6F894DEBF0FBECDBFCF91DF9162
:101470001F910F91FF90EF90089581E0809381007C
:1014800010928500109284008AE090E09093890089
:101490008093880084E690E090938B0080938A008C
:1014A00086B3887F86BBEFE6F0E08081866080832C
:1014B0000895EFE6F0E08081887F808386B3887F9F
:1014C00086BB109281000895682F8150833678F48E
:1014D00070E080E090E024E630E040E050E00E94E0
:1014E000540E0E94870E309389002093880008953F
:1014F0005A9A84B58C7084BD85B5856085BDEEE64D
:10150000F0E08081816080835298E9E6F0E080819C
:1015100081608083E89A1092A4061092A20610922D
:10152000A506089585B58A7F85BDEEE6F0E0808149
:101530008E7F8083E89808951F920F920FB60F92C6
:1015400011248F938091A506882319F481E080935C
:10155000A5068091A206882371F08091A206815091
:101560008093A2068091A206882329F48091A9067F
:10157000897F8093A9068F910F900FBE0F901F90C7
:1015800018951F920F920FB60F9211240F931F936D
:101590002F933F934F935F936F937F938F939F937B
:1015A000AF93BF93EF93FF9309B1047016B5809189
:1015B000A506882351F01092A50616BC002309F059
:1015C000D5C181E08093A40668C28091A4068330CF
:1015D00009F477C0843028F4813091F08230F0F43F
:1015E0000AC0853009F425C1853008F4EEC0863084
:1015F00009F053C255C1002309F04FC281E007C072
:10160000002309F44AC21358173228F482E0809369
:10161000A40616BC42C21092A406FBCF002391F58B
:10162000812F8D53833160F416BC83E08093A40630
:101630001092A6068091A9068D7F8093A9062DC2DF
:10164000812F8F518930F0F48091A90682FF08C064
:101650008091A90682608093A9068AE08093A20601
:1016600000D082EA94E0ADB7BEB712969C938E93F9
:1016700011970E94F50E00D0EDB7FEB7319687EABC
:1016800094E037C000D082EA94E0EDB7FEB79283D1
:1016900081830E94F50E00D000D0EDB7FEB73196E1
:1016A00088EB94E0ADB7BEB712969C938E931197DA
:1016B00002831382148315820E94F50E1092A406F1
:1016C000E4C1812F8350002329F18D3008F4A1CF8C
:1016D00000D082EA94E0ADB7BEB712969C938E9389
:1016E00011970E94F50E00D0EDB7FEB7319680ED50
:1016F00094E0ADB7BEB712969C938E931197128368
:1017000013820E94F50E1092A4060F900F900F9076
:101710000F90C3C18B30D0F43091A3062091A60660
:1017200081E090E0022E02C0880F991F0A94E2F730
:10173000809583238093A3062F5F2093A60616BC73
:101740008091A606883008F4A8C12BC0812F835150
:10175000833148F53091A3062091A60681E090E000
:10176000022E02C0880F991F0A94E2F7382B30939B
:10177000A3062F5F2093A60616BC8091A60688308C
:1017800008F48BC100D082EA94E0EDB7FEB79283F3
:1017900081830E94F50E0F900F908FED94E00E94D0
:1017A0000A0F84E07AC000D082EA94E0ADB7BEB7F9
:1017B00012969C938E9311970E94F50E00D0EDB770
:1017C000FEB731968BEE94E094CF812F83500023A7
:1017D00009F06AC08B3088F48091A3062091A60698
:1017E0002F5F2093A606215090E002C09595879523
:1017F0002A95E2F780FD15C0B9C01351133108F0E6
:10180000B5C08091A3062091A6062F5F2093A6065F
:10181000215090E002C0959587952A95E2F780FDCA
:10182000A5C016BC8091A606883008F436C185E0B4
:1018300034C0812F83500023B9F58B3088F4309168
:10184000A1062091A60681E090E0022E02C0880F3A
:10185000991F0A94E2F7809583238093A10613C011
:101860001351133108F082C03091A1062091A606D1
:1018700081E090E0022E02C0880F991F0A94E2F7DF
:10188000382B3093A1062F5F2093A60616BC8091BB
:10189000A606883008F401C186E08093A406D0C073
:1018A000812F8350002321F08D3008F05FC0B1CE2E
:1018B0008B3008F046C08091A1062091A6062F5FCC
:1018C0002093A606215090E002C0959587952A9511
:1018D000E2F780FF4BC016BC8091A606883008F462
:1018E000DCC01092A4068091A90622EA34E080FDB3
:1018F00013C08091A3068093A7068091A1068093D0
:10190000A8068091A90685608093A90600D0EDB74E
:10191000FEB7328321834FC000D0ADB7BEB7129659
:101920003C932E9311970E94F50E2091A3063091BF
:10193000A10600D000D0EDB7FEB7319687E195E063
:101940006BC0812F8351833108F07DC08091A10647
:101950002091A6062F5F2093A606215090E002C09A
:10196000959587952A95E2F780FF03C01092A4060B
:1019700094C016BC8091A606883008F48EC01092E0
:10198000A4068091A90622EA34E080FD31C080914E
:10199000A3068093A7068091A1068093A806809154
:1019A000A90685608093A90600D0ADB7BEB7129690
:1019B0003C932E9311970E94F50E2091A70630912B
:1019C000A80600D000D0EDB7FEB731968AEF94E0BC
:1019D000ADB7BEB712969C938E9311972283138254
:1019E000348315820E94F50E8AE08093A20620C0FF
:1019F00000D0ADB7BEB712963C932E9311970E94BC
:101A0000F50E2091A3063091A10600D000D0EDB7CD
:101A1000FEB731968FE595E0ADB7BEB712969C93B1
:101A20008E93119722831382348315820E94F50EC0
:101A3000EDB7FEB736960FB6F894FEBF0FBEEDBFFA
:101A40001092A6062AC01092A40600D082EA94E062
:101A5000ADB7BEB712969C938E9311970E94F50E68
:101A60002091A60600D000D0EDB7FEB7319688E9E8
:101A700095E0ADB7BEB712969C938E9311971283E3
:101A80001382248315820E94F50EEDB7FEB73696B9
:101A90000FB6F894FEBF0FBEEDBFFF91EF91BF915F
:101AA000AF919F918F917F916F915F914F913F91F6
:101AB0002F911F910F910F900FBE0F901F901895AF
:101AC000E82FF0E0E431F10508F044C0EC5CFF4F92
:101AD000EE0FFF1F0590F491E02D09942FEA35E0F9
:101AE0003BC027EB35E038C02EEB35E035C028ECA5
:101AF00035E032C02FEC35E02FC028ED35E02CC0AA
:101B000026EE35E029C026EF35E026C022E036E09B
:101B100023C026E036E020C02AE036E01DC02EE0DB
:101B200036E01AC022E136E017C026E136E014C0E4
:101B30002AE136E011C02EE136E00EC022E236E0A6
:101B40000BC026E236E008C02AE236E005C023E3F7
:101B500036E002C02BE336E0C9010895FC01108293
:101B6000128211820895FC016083662321F41082A1
:101B700012821182089586E990E09283818308950C
:101B8000CF93DF93EC0189819A8118161906BCF472
:101B900001979A838983892B91F400D08FE396E093
:101BA000EDB7FEB7928381830E94F50E0F900F90E0
:101BB00089E496E00E940A0F18821A821982DF9146
:101BC000CF910895882309F06DC0603409F442C0B4
:101BD000613410F56D3009F44BC06E3078F4683024
:101BE00009F450C0693020F4673009F05BC03AC096
:101BF0006930D1F16C3009F055C03EC06631D1F189
:101C0000673120F4653109F04DC02AC06831B1F167
:101C10006C3109F047C038C0663441F1673460F474
:101C20006334D1F0643418F46234E1F531C06434C3
:101C3000A9F06534B9F532C0623561F1633528F435
:101C4000673471F16A3471F527C06A35F9F06E3581
:101C500049F516C081E0089580E0089582E0089576
:101C600083E0089584E0089585E0089586E008956E
:101C700087E0089588E0089589E008958AE008954E
:101C80008BE008958CE008958DE008958EE008952E
:101C90008FE0089580E1089581E1089582E108953B
:101CA00083E1089584E10895629FD001739FF0015C
:101CB000829FE00DF11D649FE00DF11D929FF00DDC
:101CC000839FF00D749FF00D659FF00D9927729F13
:101CD000B00DE11DF91F639FB00DE11DF91FBD019E
:101CE000CF0111240895AA1BBB1B51E107C0AA1FF5
:101CF000BB1FA617B70710F0A61BB70B881F991FAD
:101D00005A95A9F780959095BC01CD010895A1E25F
:101D10001A2EAA1BBB1BFD010DC0AA1FBB1FEE1F65
:101D2000FF1FA217B307E407F50720F0A21BB30BB0
:101D3000E40BF50B661F771F881F991F1A9469F72C
:101D400060957095809590959B01AC01BD01CF0188
:101D500008950F931F93CF93DF938C01EB010097AE
:101D600031F46115710519F420E030E038C081E0EC
:101D700090E06EE070E00E944411FC019C0100972D
:101D800071F180E88383209771F0D387C28781E85F
:101D900083838091AA069091AB06892B21F4F0935E
:101DA000AB06E093AA0601151105C9F0118700875B
:101DB0008381826083838091AC069091AD06892BEC
:101DC00071F4F093AD06E093AC068091AE0690916D
:101DD000AF06892B21F4F093AF06E093AE06C9015C
:101DE000DF91CF911F910F910895A0E0B0E0EBEF4C
:101DF000FEE00C941C13FE01359661917191809167
:101E0000AC069091AD06AF010E943F0F2096E2E034
:101E10000C9438130F931F93CF93DF938C01E091B1
:101E2000AC06F091AD06838181FF21C0C0E0D0E017
:101E30000DC0E091AC06F091AD0620853185BF0163
:101E4000F9010995892B11F0CFEFDFEFF8018191AE
:101E50008F01882371F7E091AC06F091AD062085E3
:101E600031858AE0BF01F9010995892B11F0CFEF87
:101E7000DFEFCE01DF91CF911F910F910895ABE07D
:101E8000B0E0E5E4FFE00C940C133C012B015A0197
:101E9000FC0117821682838181FD03C06FEF7FEF03
:101EA000C6C19AE0892E1E010894211C311CF30141
:101EB0002381F20123FD859123FF81912F01882346
:101EC00009F4B2C1853239F423FD859123FF819154
:101ED0002F01853229F490E0B3010E948212E7CFEE
:101EE000982FFF24EE249924FFE1FF15D0F09B32B8
:101EF00069F09C3228F4903259F0933291F40EC07C
:101F00009D3249F0903369F441E024C052E0F52A53
:101F100084E0F82A28C098E0F92A25C0E0E1FE2AEA
:101F200022C0F7FC29C0892F80538A3070F4F6FE56
:101F300005C0989C902C1124980E15C0E89CE02CAC
:101F40001124E80EF0E2FF2A0EC09E3229F4F6FCBE
:101F50006BC140E4F42A07C09C3619F450E8F52A16
:101F600002C0983649F4F20123FD959123FF919127
:101F70002F01992309F0B8CF892F8554833018F0A9
:101F80008052833038F444E050E0A40EB51E5FE385
:101F900059830FC0933631F0933779F0933509F0B8
:101FA00056C020C0F5018081898342E050E0A40E34
:101FB000B51E610101E010E012C0F501C080D180C2
:101FC000F6FC03C06FEF7FEF02C0692D70E042E0C6
:101FD00050E0A40EB51EC6010E9477128C015FE787
:101FE000F52214C0F501C080D180F6FC03C06FEF6C
:101FF0007FEF02C0692D70E042E050E0A40EB51EF4
:10200000C6010E9465128C0150E8F52AF3FE07C054
:102010001AC080E290E0B3010E948212EA948E2DF1
:1020200090E008171907A8F30EC0F601F7FC859198
:10203000F7FE81916F0190E0B3010E948212E110DE
:10204000EA94015010400115110579F7EAC0943661
:1020500011F0993669F5F7FE08C0F501208131814C
:102060004281538184E090E00AC0F5018081918132
:102070009C01442737FD4095542F82E090E0A80E44
:10208000B91E9FE6F92257FF09C05095409530953B
:1020900021953F4F4F4F5F4FE0E8FE2ACA01B9013B
:1020A000A1012AE030E00E94AE12D82ED21840C022
:1020B000953729F41F2D1F7E2AE030E01DC01F2D0B
:1020C000197F9F3661F0903720F4983509F0ACC045
:1020D0000FC0903739F0983709F0A6C004C028E047
:1020E00030E00AC0106114FD146020E130E004C04B
:1020F00014FD166020E132E017FF08C0F501608191
:1021000071818281938144E050E008C0F5018081B3
:102110009181BC0180E090E042E050E0A40EB51E49
:10212000A1010E94AE12D82ED2188FE7F82EF1220C
:10213000F6FE0BC05EEFF522D91438F4F4FE07C0AA
:10214000F2FC05C08FEEF82202C01D2D01C0192D32
:10215000F4FE0DC0FE01ED0DF11D8081803319F4F8
:1021600099EEF92208C01F5FF2FE05C003C08F2D53
:10217000867809F01F5F0F2DF3FC14C0F0FE0FC02E
:102180001E1510F09D2C0BC09D2C9E0C911A1E2D1F
:1021900006C080E290E0B3010E9482121F5F1E150C
:1021A000C0F304C01E1510F4E11A01C0EE2404FFB0
:1021B0000FC080E390E0B3010E94821202FF1DC0B5
:1021C00001FD03C088E790E00EC088E590E00BC0F9
:1021D000802F867891F001FF02C08BE201C080E27F
:1021E000F7FC8DE290E0B3010E94821206C080E30A
:1021F00090E0B3010E9482129A94D914C0F3DA9449
:10220000F101ED0DF11D808190E0B3010E94821279
:10221000DD20A9F706C080E290E0B3010E9482129F
:10222000EA94EE20C1F743CEF30166817781CB01BA
:102230002B96E2E10C942813DC01CB01FC01F99907
:10224000FECF06C0F2BDE1BDF89A319600B40D9202
:1022500041505040B8F70895DC01CB0103C02D91E7
:102260000E94371141505040D0F70895262FF99918
:10227000FECF1FBA92BD81BD20BD0FB6F894FA9A69
:10228000F99A0FBE019608950F931F93CF93DF9392
:10229000689F8001699F100D789F100D1124C8015F
:1022A0000E946011EC01009729F060E070E0A80145
:1022B0000E947012CE01DF91CF911F910F9108956E
:1022C000CF93DF93BC018230910510F462E070E09F
:1022D000A091B206B091B306ED01E0E0F0E040E07D
:1022E00050E021C0888199818617970769F48A8117
:1022F0009B81309719F09383828304C09093B30637
:102300008093B206FE0134C06817790738F441158E
:10231000510519F08417950708F4AC01FE018A8174
:102320009B819C01E9012097E9F641155105A9F12E
:10233000CA01861B970B049708F4BA01E0E0F0E0AD
:102340002AC08D919C91119784179507F9F4641711
:10235000750781F412968D919C911397309719F01F
:102360009383828304C09093B3068093B206FD01E9
:1023700032964FC0CA01861B970BFD01E80FF91F6B
:102380006193719302978D939C9343C0FD01828169
:1023900093819C01D9011097A1F68091B00690918C
:1023A000B106892B41F48091650690916606909361
:1023B000B1068093B00640916706509168064115BA
:1023C000510541F44DB75EB7809163069091640664
:1023D000481B590B2091B0063091B10624173507E0
:1023E000B0F4CA01821B930B8617970780F0AB01EC
:1023F0004E5F5F4F8417950750F0420F531F509365
:10240000B1064093B006F9016193719302C0E0E018
:10241000F0E0CF01DF91CF910895CF93DF93009744
:1024200009F450C0EC0122971B821A82A091B206D7
:10243000B091B306109709F140E050E0AC17BD072A
:1024400008F1BB83AA83FE0121913191E20FF31FB2
:10245000AE17BF0779F48D919C911197280F391F02
:102460002E5F3F4F3983288312968D919C9113974D
:102470009B838A834115510571F4D093B306C093B1
:10248000B20620C012968D919C911397AD010097D2
:1024900011F0DC01D3CFFA01D383C28321913191B2
:1024A000E20FF31FCE17DF0769F488819981280FA7
:1024B000391F2E5F3F4FFA01318320838A819B8130
:1024C00093838283DF91CF910895FC010590615041
:1024D00070400110D8F7809590958E0F9F1F08953A
:1024E000DC0101C06D9341505040E0F70895FC01BC
:1024F0006150704001900110D8F7809590958E0F33
:102500009F1F08950F931F93CF93DF938C01EB01CF
:102510008B8181FF1BC082FF0DC02E813F818C818A
:102520009D812817390764F4E881F9810193F983C3
:10253000E88306C0E885F985802F0995892B31F459
:102540008E819F8101969F838E8302C00FEF1FEFC4
:10255000C801DF91CF911F910F910895FA01AA2729
:10256000283051F1203181F1E8946F936E7F6E5FD6
:102570007F4F8F4F9F4FAF4FB1E03ED0B4E03CD084
:10258000670F781F891F9A1FA11D680F791F8A1F67
:10259000911DA11D6A0F711D811D911DA11D20D0CE
:1025A00009F468943F912AE0269F11243019305D88
:1025B0003193DEF6CF010895462F4770405D419379
:1025C000B3E00FD0C9F7F6CF462F4F70405D4A33C6
:1025D00018F0495D31FD4052419302D0A9F7EACF8E
:1025E000B4E0A6959795879577956795BA95C9F7BD
:1025F00000976105710508959B01AC010A2E0694B0
:102600005795479537952795BA95C9F7620F731F68
:10261000841F951FA01D08952F923F924F925F92A5
:102620006F927F928F929F92AF92BF92CF92DF92E2
:10263000EF92FF920F931F93CF93DF93CDB7DEB747
:10264000CA1BDB0B0FB6F894DEBF0FBECDBF0994DB
:102650002A88398848885F846E847D848C849B8432
:10266000AA84B984C884DF80EE80FD800C811B8140
:10267000AA81B981CE0FD11D0FB6F894DEBF0FBE6F
:0A268000CDBFED010895F894FFCFDF
:10268A004D41494E2000464D20726164696F2073A6
:10269A0074617274696E672E2E2E004C465553452E
:1026AA00203D20253032582C204846555345203DA0
:1026BA0020253032582C204546555345203D2025AB
:1026CA003032582C204C4F434B203D202530325875
:1026DA000A004E45432049522052583A2061646408
:1026EA0072657373203D20253032582C20636F6D3C
:1026FA006D616E64203D20253032580A00436F6DAB
:10270A006D616E64203D20257320282564290A0006
:10271A00736C6565702F77616B652074696D65727E
:10272A0020656C61707365640053657474696E67C3
:10273A002073746174696F6E202325640A005365DF
:10274A007474696E6720736C6565702074696D6551
:10275A007220746F20256C750A0053657474696E53
:10276A00672077616B652074696D657220746F20CC
:10277A00256C750A0054756E696E6720746F207334
:10278A00746174696F6E202325640A00537461743E
:10279A00696F6E20232564206973206E6F7420632D
:1027AA006F6E666967757265640A00556E68616E58
:1027BA00646C6564206E756D6265722062757474EE
:1027CA006F6E20282564292C2075695F73746174E3
:1027DA00652E7374203D2025640A00437572726564
:1027EA006E7420696E646578203D2025640A005560
:1027FA006E68616E646C656420636F6D6D616E6492
:10280A003A2025640A007374617475733A206672FB
:10281A00657175656E63792025752E253032754D83
:10282A00487A2C2073746572656F2025752C207286
:10283A007373692025752C2074756E656F6B20255E
:10284A00752C20666D747275652025752C20666D51
:10285A0072656164792025752C2074756E656661D0
:10286A00696C2025750A005457492000577269740B
:10287A0065206572726F722C2074777374203D2004
:10288A00253032580A005772697465206572726F72
:10289A00722040414444522C2074777374203D20A6
:1028AA00253032580A005772697465206572726F52
:1028BA0072204053544152542C2074777374203D33
:1028CA0020253032580A005244413538303720002A
:1028DA0077726974650073656E64206164647265F9
:1028EA007373005772697465206572726F72204043
:1028FA0061646472657373005772697465206572E6
:10290A00726F722040414444522C207477737420B1
:10291A003D203078253032580A0073656E64207283
:10292A0065676973746572730073746F700073748A
:10293A006F707065640077726974655F726567208D
:10294A0025750A0073687574646F776E0053657431
:10295A002073746572656F203D2025750A00466FE5
:10296A007263696E67206D6F6E6F005365742076AF
:10297A006F6C756D65203D2025750A00736561725F
:10298A0063683A207570203D2025640A0054756EEC
:10299A006520746F2025752E253032754D487A2CA6
:1029AA00206368616E203D2025750A00696E69748E
:1029BA0000434F4E4649472000436F6E66696720C1
:1029CA0073617665642C206964203D2025750A00B0
:1029DA004E6F20636F6E66696720666F756E642C32
:1029EA00207573696E672064656661756C7400434F
:1029FA006F6E666967206C6F616465642066726FCA
:102A0A006D20616464722025642C206672657120D1
:102A1A003D2025752C20766F6C203D2025750A00F7
:102A2A00C8004E4543200049444C45203220636E7D
:102A3A0074203D2025640A0049444C452033207007
:102A4A006F72742025642C20636E742025640A003A
:102A5A0049444C45203420636E742025750A004988
:102A6A00525F4144445220696E760049444C4520E5
:102A7A003520636E742025750A0052656365697690
:102A8A0065642061646472202530325820636D6465
:102A9A0020253032580A00526563656976656420DC
:102AAA0061646472202530325820636D64202530B9
:102ABA003258206275742052435620666C61672032
:102ACA006973206E6F7420636C65617265642C2073
:102ADA006576656E742064726F707065640A005260
:102AEA0065636569766564206164647220253032A5
:102AFA005820636D64202530325820627574205244
:102B0A00435620666C6167206973206E6F74206378
:102B1A006C65617265640A0049444C45203620633D
:102B2A006E7420257520626974732025640A005426
:102B3A00554E45205550004F4E2F4F46460054558E
:102B4A004E4520444F574E00564F4C205550005684
:102B5A004F4C20444F574E0053544552454F205432
:102B6A004F47474C45004348414E4E454C204D4542
:102B7A004D2053455400534C4545502054494D452A
:102B8A0052005B305D005B315D005B325D005B33A0
:102B9A005D005B345D005B355D005B365D005B3775
:102BAA005D005B385D005B395D0043485F4D494E0F
:102BBA0055530043485F504C5553003F3F3F005523
:102BCA00495F5354415445200052657365747469D2
:102BDA006E67207374617465202874696D656F75FA
:0A2BEA007429002000B4060000006A
:00000001FF
