:100000000C9434000C9439080C9451000C94510059
:100010000C9451000C9451000C9451000C9451001C
:100020000C9451000C9451000C9451000C9451000C
:100030000C9451000C9451000C9451000C945100FC
:100040000C9414080C9451000C9451000C94510021
:100050000C9451000C9451000C9451000C945100DC
:100060000C9451000C94510011241FBECFEFD8E026
:10007000DEBFCDBF14E0A0E0B1E0ECE1F0E202C0F1
:1000800005900D92AA3FB107D9F715E0AAEFB4E0A9
:1000900001C01D92A832B107E1F70E946D000C94D7
:1000A0000C100C9400000E94160580910F05909191
:1000B00010050E94BD04809112050E94FE0380ED90
:1000C00097E020E931E0F9013197F1F70197D9F78D
:1000D000809111050E94460408952F923F924F92FD
:1000E0005F926F927F928F929F92AF92BF92CF92C8
:1000F000DF92EF92FF920F931F93DF93CF93CDB7D1
:10010000DEB729970FB6F894DEBF0FBECDBF1982B8
:100110008FEF84B915B817B888B91092B9008CE080
:100120008093B80084E08093BC000E9418060E946F
:10013000F007789400D080E091E0ADB7BEB712969A
:100140009C938E9311970E94BE0B0F900F9086E0A8
:1001500091E00E94D30BF89429E0E0E0F0E02093D6
:1001600057003491E3E0F0E0209357004491E2E03F
:10017000F0E0209357005491E1E0F0E02093570025
:1001800024917894EDB7FEB73A970FB6F894FEBF76
:100190000FBEEDBF31968BE191E0ADB7BEB71296C1
:1001A0009C938E93119732831382448315825683D6
:1001B0001782208711860E94BE0BEDB7FEB73A96D4
:1001C0000FB6F894FEBF0FBEEDBF0E94950680915A
:1001D0000E05882319F00E94530002C00E94E2031A
:1001E00040E0A42E41E0B42E32E5232E31E0332E40
:1001F0002DE7422E21E0522E90E9C92E91E0D92E12
:100200004E010894811C911C80E9682E81E0782EB3
:1002100000E0EE24FF2480911D0580FFAAC000D0DD
:10022000ADB7BEB71296BC92AE9211970E94BE0BAC
:1002300080911B0590911C0500D000D0EDB7FEB752
:100240003196ADB7BEB712963C922E92119782832B
:100250001382948315820E94BE0B80911B056091CE
:100260001C05EDB7FEB736960FB6F894FEBF0FBE6D
:10027000EDBF0E94FE0A182F00D0ADB7BEB7129690
:10028000BC92AE9211970E94BE0B0F900F90812FDF
:100290000E94D80A00D000D000D0EDB7FEB731964A
:1002A000ADB7BEB712965C924E921197938382833C
:1002B000148315820E94BE0B80911D058E7F809352
:1002C0001D05EDB7FEB736960FB6F894FEBF0FBE0C
:1002D000EDBF112391F480910E05882341F0109217
:1002E0000E05C4010E9464050E94E20341C0F1E0D2
:1002F000F0930E050E9453003BC0123059F480E089
:100300000E947C0488E893E1F6013197F1F70197A8
:10031000D9F72FC0113059F481E00E947C0488E89D
:1003200093E1F6013197F1F70197D9F722C0133025
:1003300031F4809111058F30E0F48F5F07C01430E5
:1003400051F4809111058230A0F081508093110505
:100350000E9446040DC0153061F490E080911205B2
:10036000882309F491E090931205892F0E94FE03DF
:1003700001E088EC90E0F6013197F1F70197D9F7A9
:1003800020910E05222351F0C7018F719070892BA7
:1003900059F485B130E2832785B906C084E08E1513
:1003A00010F02D9A01C02D980894E11CF11C98ECD6
:1003B000E916F10409F02FCF222309F447C0C40144
:1003C0000E94640500D0ADB7BEB71296BC92AE9243
:1003D00011970E94BE0B2A813B81EDB7FEB7709743
:1003E0000FB6F894FEBF0FBEEDBF3196ADB7BEB7E6
:1003F00012967C926E921197C90164E670E00E9499
:100400003C0B73836283C90164E670E00E943C0B7D
:10041000958384838C81868317828D818087118662
:100420008E81828713868F8184871586888586874B
:1004300017868985808B118A0E94BE0BEDB7FEB7A7
:1004400072960FB6F894FEBF0FBEEDBF8981882368
:1004500049F020910F05309110058A819B81281762
:10046000390719F4002309F4D3CE8A819B81909334
:10047000100580930F050E942F06CACE84E9809351
:10048000BC008091BC0084FDFCCF08951F93809335
:10049000BB0084E88093BC008091BC0087FFFCCF48
:1004A0001091B900187F183211F480E020C000D0FC
:1004B00081EF91E0ADB7BEB712969C938E931197E2
:1004C0000E94BE0B00D0EDB7FEB7319686EF91E0EB
:1004D000ADB7BEB712969C938E9311971283138279
:1004E0000E94BE0B81E00F900F900F900F901F9114
:1004F00008951F938093BB0084E88093BC00809193
:10050000BC0087FFFCCF1091B900187F183119F19A
:10051000103409F100D081EF91E0ADB7BEB712966B
:100520009C938E9311970E94BE0B00D0EDB7FEB73F
:10053000319680E192E0ADB7BEB712969C938E9350
:100540001197128313820E94BE0B81E00F900F90CF
:100550000F900F9001C080E01F9108951F9384EACF
:100560008093BC008091BC0087FFFCCF1091B90044
:10057000187F183019F1103109F100D081EF91E0A6
:10058000ADB7BEB712969C938E9311970E94BE0B87
:1005900000D0EDB7FEB7319680E392E0ADB7BEB7BD
:1005A00012969C938E931197128313820E94BE0B16
:1005B00081E00F900F900F900F9001C080E01F918D
:1005C00008950F931F93CF93DF9300D0C1E5D2E03E
:1005D000ADB7BEB71296DC93CE9311970E94BE0BB7
:1005E0000F900F908AE592E00E94D30B0E94AE021A
:1005F000182F882309F08DC000D0EDB7FEB7D28345
:10060000C1830E94BE0B0F900F9080E692E00E9483
:10061000D30B80E20E947902182F882371F000D05A
:10062000ADB7BEB71296DC93CE9311970E94BE0B66
:100630000F900F908DE692E06AC01091B900187F7C
:100640001831E9F01034D9F000D0EDB7FEB7D283FD
:10065000C1830E94BE0B00D0EDB7FEB7319682E891
:1006600092E0ADB7BEB712969C938E93119712830A
:1006700013820E94BE0B0F900F900F900F9000D02E
:1006800081E592E0EDB7FEB7928381830E94BE0BB5
:100690000F900F9084EA92E00E94D30BCBEFD4E04E
:1006A000088189810E944602182F882359F4802FDF
:1006B0000E944602182F882329F42396F5E0CD30B6
:1006C000DF0771F700D081E592E0ADB7BEB71296B3
:1006D0009C938E9311970E94BE0B0F900F9083EB0B
:1006E00092E00E94D30B84E98093BC008091BC000F
:1006F00084FDFCCF00D081E592E0EDB7FEB7928398
:1007000081830E94BE0B0F900F9088EB92E00E94B5
:10071000D30B812FDF91CF911F910F910895CF922D
:10072000DF92EF92FF920F931F93082F00D091E575
:10073000C92E92E0D92EEDB7FEB7D282C1820E94B7
:10074000BE0B10E000D080EC92E0EDB7FEB79283D4
:100750008183148303830E94BE0B0F900F900F9030
:100760000F900E94AE0282E20E9479027801EE0CA4
:10077000FF1CE00EF11E8AEF94E0E80EF91EF7016F
:1007800081918F010E944602F80181810E944602F8
:10079000F70181810E9446020E943E0200D0EDB71F
:1007A000FEB7D282C1820E94BE0B0F900F9088EBE1
:1007B00092E00E94D30B1F910F91FF90EF90DF907A
:1007C000CF90089500D081E592E0EDB7FEB7928317
:1007D00081830E94BE0B0F900F908EEC92E00E94DE
:1007E000D30B8091FB049091FC048E7F9093FC04CA
:1007F0008093FB0480E00E948F0308951F93CF93A2
:10080000DF93182F00D0C1E5D2E0ADB7BEB7129686
:10081000DC93CE9311970E94BE0B00D0EDB7FEB7CC
:10082000319687ED92E0ADB7BEB712969C938E934A
:100830001197128313820E94BE0B0F900F900F909E
:100840000F90112399F400D0EDB7FEB7D283C18386
:100850000E94BE0B0F900F9088EE92E00E94D30B87
:100860008091FB049091FC04906205C08091FB0490
:100870009091FC049F7D9093FC048093FB0480E0A6
:100880000E948F03DF91CF911F9108950F931F93C3
:10089000082F00D081E592E0ADB7BEB712969C93C9
:1008A0008E9311970E94BE0B00D0EDB7FEB7319624
:1008B00085EF92E0ADB7BEB712969C938E931197D9
:1008C000028313820E94BE0B10E00F7010708091A3
:1008D000040590910505807F082B192B10930505C1
:1008E000009304050F900F900F900F9083E00E94EB
:1008F0008F031F910F9108951F93182F00D081E54A
:1009000092E0ADB7BEB712969C938E9311970E945A
:10091000BE0B00D0EDB7FEB7319686E093E0ADB7E1
:10092000BEB712969C938E931197128313820E94E6
:10093000BE0B0F900F900F900F90112331F080910C
:10094000FB049091FC04936006C08091FB0490919D
:10095000FC049D7F91609093FC048093FB0480E0F5
:100960000E948F038091FB049091FC049E7F9093E2
:10097000FC048093FB041F910895EF92FF920F9364
:100980001F937C018C5F91426AE070E00E943C0BF7
:100990008B0100D081E592E0ADB7BEB712969C9373
:1009A0008E9311970E94BE0B00D000D000D0EDB7FF
:1009B000FEB7319687E193E0ADB7BEB712969C9330
:1009C0008E931197C70164E670E00E943C0B73831D
:1009D0006283C70164E670E00E943C0B95838483C8
:1009E000178306830E94BE0B8091FE049091FF0442
:1009F0008F739070806126E0000F111F2A95E1F738
:100A0000802B912B9093FF048093FE04EDB7FEB7EB
:100A100038960FB6F894FEBF0FBEEDBF81E00E947E
:100A20008F031F910F91FF90EF90089500D081E503
:100A300092E0EDB7FEB7928381830E94BE0B0F90C8
:100A40000F9086E393E00E94D30B82E08093FA0438
:100A500083E08093FD041092FF041092FE0484E072
:100A600080930005109202051092010585E08093A5
:100A7000030580E898E8909305058093040586E0D7
:100A800080930605109208051092070587E0809371
:100A9000090582E092E490930B0580930A0587E0B4
:100AA00090EE9093FC048093FB0480E00E948F03FF
:100AB0008091FB049091FC048D7F9093FC048093C3
:100AC000FB040E94E1020895BF92CF92DF92EF9261
:100AD000FF920F931F93DF93CF93CDB7DEB7689745
:100AE0000FB6F894DEBF0FBECDBF7C01DC011C92B7
:100AF0000E94AE02B82E882309F07FC081E20E94D6
:100B00007902B82E882309F078C0FE0131968CE076
:100B1000DF011D928A95E9F76F018F0144E894EC9B
:100B20009E01235F3F4F802F8E1B8B3019F09093D7
:100B3000BC0002C04093BC008091BC0087FFFCCF8A
:100B40008091BB00D8018D938D01A217B30759F78F
:100B50008CE0FD0111928A95E9F70E943E02F801AE
:100B6000D6013C9120E011968C9190E0822B932B42
:100B70008193919382E090E0C80ED91EC016D106F1
:100B800079F74D855E85CA0193709C0163E0220F61
:100B9000331F6A95E1F7880F991F280F391F2450DA
:100BA0003E4DD70112963C932E9311972F8598892D
:100BB000892F869514968C931497852F8695869504
:100BC000817013968C931397287017962C93179710
:100BD000917016969C931697852F8295869586958B
:100BE000817015968C931597852F829586958170C7
:100BF00018968C93189781E08C938B2D68960FB67E
:100C0000F894DEBF0FBECDBFCF91DF911F910F9142
:100C1000FF90EF90DF90CF90BF900895982F809134
:100C2000C00085FFFCCF9093C60080E090E008955F
:100C30001092C50080E18093C400E0ECF0E0808178
:100C40008260808388E18093C10086E08093C20047
:100C50008EE096E060E070E00E94720B08950F93C2
:100C60001F938091AA039091AB03883C910519F4DE
:100C700084E690E002C088EC90E09093AB03809310
:100C8000AA03ECE0F5E02FEF3FEF81912827822FB8
:100C900082958227082E869586958025082E869532
:100CA00080258770022E232F869507948795302DF7
:100CB0002827069487953025282785E0E331F80713
:100CC00021F7318320838F01075010406091AA03E0
:100CD0007091AB03C80149E050E00E94F50D00D0CF
:100CE0008BE393E0EDB7FEB7928381830E94BE0B46
:100CF00000D083E493E0EDB7FEB792838183F801DF
:100D000080819181EDB7FEB7948383830E94BE0BEF
:100D1000F801808191810196918380830F900F90DB
:100D20000F900F901F910F910895EF92FF920F93E4
:100D30001F93DF93CF93CDB7DEB729970FB6F89403
:100D4000DEBF0FBECDBF8E010F5F1F4FC80164E62F
:100D500070E049E050E00E94E50DF8010FEF1FEF51
:100D60009E01285F3F4F81910827802F8295802721
:100D7000082E869586958025082E86958025877075
:100D8000002E012F869507948795102D082706942D
:100D9000879510250827E217F30729F7E884F984D7
:100DA0008CE095E068EC70E049E050E00E94E50DD1
:100DB000ECE0F5E02FEF3FEF81912827822F82951D
:100DC0008227082E869586958025082E8695802573
:100DD0008770022E232F869507948795302D28271C
:100DE000069487953025282785E0E331F80721F719
:100DF00040E0808191812817390709F441E00E1500
:100E00001F0569F1442309F05DC010920D05109291
:100E10000C0521E020930E0586E097E290931005E3
:100E200080930F0588E0809311052093120588ECCC
:100E300090E09093AB038093AA0300D08BE393E000
:100E4000ADB7BEB712969C938E9311970E94BE0BBE
:100E50000F900F908AE593E00E94D30B79C0442352
:100E600011F140910C0550910D0529813A81CA017B
:100E7000821B930B97FF0AC0ACE0B5E0FE013196F0
:100E800089E001900D928150E1F716C04217530797
:100E9000C8F4ACE0B5E0FE01319689E001900D9216
:100EA0008150E1F709C0ACE0B5E0FE01319689E080
:100EB00001900D928150E1F784E690E09093AB03AE
:100EC0008093AA038091110581508F3018F088E03B
:100ED0008093110500D08BE393E0EDB7FEB79283CA
:100EE00081830E94BE0B00D000D000D0EDB7FEB7CA
:100EF000319689E793E0ADB7BEB712969C938E9377
:100F000011978091AA039091AB0393838283809180
:100F10000F059091100564E670E00E943C0B75830C
:100F2000648380911105868317820E94BE0B809195
:100F30000C0590910D05019690930D0580930C057D
:100F4000EDB7FEB738960FB6F894FEBF0FBEEDBFF3
:100F500029960FB6F894DEBF0FBECDBFCF91DF91BB
:100F60001F910F91FF90EF90089581E08093810091
:100F700010928500109284008AE090E0909389009E
:100F80008093880084E690E090938B0080938A00A1
:100F900086B3887F86BBEFE6F0E080818660808341
:100FA0000895EFE6F0E08081887F808386B3887FB4
:100FB00086BB109281000895682F8150833678F4A3
:100FC00070E080E090E024E630E040E050E00E94F5
:100FD0001D0B0E94500B30938900209388000895C8
:100FE0005A9A84B58C7084BD85B5856085BDEEE662
:100FF000F0E08081816080835298E9E6F0E08081B2
:1010000081608083E89A109218051092160510925C
:101010001905089585B58A7F85BDEEE6F0E08081EB
:101020008E7F8083E89808951F920F920FB60F92DB
:1010300011248F9380911905882319F481E08093FE
:10104000190580911605882371F08091160581504D
:101050008093160580911605882329F480911D053B
:10106000897F80931D058F910F900FBE0F901F9069
:1010700018951F920F920FB60F9211240F931F9382
:101080002F933F934F935F936F937F938F939F9390
:10109000AF93BF93EF93FF9309B1047016B580919E
:1010A0001905882351F01092190516BC002309F088
:1010B000D5C181E08093180568C2809118058330FE
:1010C00009F477C0843028F4813091F08230F0F454
:1010D0000AC0853009F425C1853008F4EEC0863099
:1010E00009F053C255C1002309F04FC281E007C087
:1010F000002309F44AC21358173228F482E080937F
:10110000180516BC42C210921805FBCF002391F5BA
:10111000812F8D53833160F416BC83E080931805D2
:1011200010921A0580911D058D7F80931D052DC29B
:10113000812F8F518930F0F480911D0582FF08C006
:1011400080911D05826080931D058AE080931605BD
:1011500000D08CEA93E0ADB7BEB712969C938E9305
:1011600011970E94BE0B00D0EDB7FEB7319681EB10
:1011700093E037C000D08CEA93E0EDB7FEB79283DE
:1011800081830E94BE0B00D000D0EDB7FEB7319630
:1011900082EC93E0ADB7BEB712969C938E931197F5
:1011A00002831382148315820E94BE0B10921805CD
:1011B000E4C1812F8350002329F18D3008F4A1CFA1
:1011C00000D08CEA93E0ADB7BEB712969C938E9395
:1011D00011970E94BE0B00D0EDB7FEB731968AED95
:1011E00093E0ADB7BEB712969C938E93119712837E
:1011F00013820E94BE0B109218050F900F900F9053
:101200000F90C3C18B30D0F43091170520911A058F
:1012100081E090E0022E02C0880F991F0A94E2F745
:1012200080958323809317052F5F20931A0516BCA2
:1012300080911A05883008F4A8C12BC0812F8351F2
:10124000833148F53091170520911A0581E090E02F
:10125000022E02C0880F991F0A94E2F7382B3093B0
:1012600017052F5F20931A0516BC80911A05883048
:1012700008F48BC100D08CEA93E0EDB7FEB79283FF
:1012800081830E94BE0B0F900F9089EE93E00E9425
:10129000D30B84E07AC000D08CEA93E0ADB7BEB740
:1012A00012969C938E9311970E94BE0B00D0EDB7BF
:1012B000FEB7319685EF93E094CF812F83500023C2
:1012C00009F06AC08B3088F48091170520911A05C7
:1012D0002F5F20931A05215090E002C095958795C5
:1012E0002A95E2F780FD15C0B9C01351133108F0FB
:1012F000B5C08091170520911A052F5F20931A051C
:10130000215090E002C0959587952A95E2F780FDDF
:10131000A5C016BC80911A05883008F436C185E056
:1013200034C0812F83500023B9F58B3088F430917D
:10133000150520911A0581E090E0022E02C0880F69
:10134000991F0A94E2F7809583238093150513C0B3
:101350001351133108F082C03091150520911A0500
:1013600081E090E0022E02C0880F991F0A94E2F7F4
:10137000382B309315052F5F20931A0516BC8091EA
:101380001A05883008F401C186E080931805D0C0A2
:10139000812F8350002321F08D3008F05FC0B1CE43
:1013A0008B3008F046C08091150520911A052F5FFB
:1013B00020931A05215090E002C0959587952A95B3
:1013C000E2F780FF4BC016BC80911A05883008F404
:1013D000DCC01092180580911D052CEA33E080FDD9
:1013E00013C08091170580931B058091150580938C
:1013F0001C0580911D05856080931D0500D0EDB70B
:10140000FEB7328321834FC000D0ADB7BEB712966E
:101410003C932E9311970E94BE0B2091170530919B
:10142000150500D000D0EDB7FEB7319681E294E00B
:101430006BC0812F8351833108F07DC080911505E9
:1014400020911A052F5F20931A05215090E002C0C9
:10145000959587952A95E2F780FF03C010921805AD
:1014600094C016BC80911A05883008F48EC0109282
:10147000180580911D052CEA33E080FD31C0809174
:10148000170580931B058091150580931C0580919D
:101490001D05856080931D0500D0ADB7BEB71296BF
:1014A0003C932E9311970E94BE0B20911B05309107
:1014B0001C0500D000D0EDB7FEB7319684E094E073
:1014C000ADB7BEB712969C938E9311972283138269
:1014D000348315820E94BE0B8AE08093160520C0DB
:1014E00000D0ADB7BEB712963C932E9311970E94D1
:1014F000BE0B209117053091150500D000D0EDB737
:10150000FEB7319689E694E0ADB7BEB712969C93CC
:101510008E93119722831382348315820E94BE0B0F
:10152000EDB7FEB736960FB6F894FEBF0FBEEDBF0F
:1015300010921A052AC01092180500D08CEA93E088
:10154000ADB7BEB712969C938E9311970E94BE0BB7
:1015500020911A0500D000D0EDB7FEB7319682EA8F
:1015600094E0ADB7BEB712969C938E9311971283F9
:101570001382248315820E94BE0BEDB7FEB7369608
:101580000FB6F894FEBF0FBEEDBFFF91EF91BF9174
:10159000AF919F918F917F916F915F914F913F910B
:1015A0002F911F910F910F900FBE0F901F901895C4
:1015B0008230A1F0833028F4882369F08130D1F49F
:1015C00007C0843089F0843060F0853099F40FC012
:1015D00029EB34E011C021EC34E00EC028EC34E0FB
:1015E0000BC022ED34E008C029ED34E005C022EE46
:1015F00034E002C020EF34E0C90108958823D9F413
:10160000653199F0663128F4673089F0693099F4D2
:1016100010C0633431F0643431F0603461F481E03F
:10162000089580E0089582E0089583E0089584E0BD
:10163000089585E0089586E00895629FD001739F24
:10164000F001829FE00DF11D649FE00DF11D929F5E
:10165000F00D839FF00D749FF00D659FF00D99279D
:10166000729FB00DE11DF91F639FB00DE11DF91FC1
:10167000BD01CF0111240895AA1BBB1B51E107C076
:10168000AA1FBB1FA617B70710F0A61BB70B881F12
:10169000991F5A95A9F780959095BC01CD010895A1
:1016A000A1E21A2EAA1BBB1BFD010DC0AA1FBB1F66
:1016B000EE1FFF1FA217B307E407F50720F0A21BD8
:1016C000B30BE40BF50B661F771F881F991F1A9445
:1016D00069F760957095809590959B01AC01BD016F
:1016E000CF0108950F931F93CF93DF938C01EB01EC
:1016F000009731F46115710519F420E030E038C02D
:1017000081E090E06EE070E00E940D0EFC019C0113
:10171000009771F180E88383209771F0D387C287A7
:1017200081E8838380911E0590911F05892B21F408
:10173000F0931F05E0931E0501151105C9F01187EF
:1017400000878381826083838091200590912105A9
:10175000892B71F4F0932105E093200580912205F7
:1017600090912305892B21F4F0932305E093220522
:10177000C901DF91CF911F910F910895A0E0B0E0D2
:10178000E4ECFBE00C94E50FFE013596619171915C
:101790008091200590912105AF010E94080C2096B0
:1017A000E2E00C9401100F931F93CF93DF938C0111
:1017B000E0912005F0912105838181FF21C0C0E0E7
:1017C000D0E00DC0E0912005F09121052085318504
:1017D000BF01F9010995892B11F0CFEFDFEFF80177
:1017E00081918F01882371F7E0912005F091210507
:1017F000208531858AE0BF01F9010995892B11F017
:10180000CFEFDFEFCE01DF91CF911F910F910895C0
:10181000ABE0B0E0EEE0FCE00C94D50F3C012B0116
:101820005A01FC0117821682838181FD03C06FEF8C
:101830007FEFC6C19AE0892E1E010894211C311C3D
:10184000F3012381F20123FD859123FF81912F0173
:10185000882309F4B2C1853239F423FD859123FF31
:1018600081912F01853229F490E0B3010E944B0F42
:10187000E7CF982FFF24EE249924FFE1FF15D0F045
:101880009B3269F09C3228F4903259F0933291F4F3
:101890000EC09D3249F0903369F441E024C052E01B
:1018A000F52A84E0F82A28C098E0F92A25C0E0E16A
:1018B000FE2A22C0F7FC29C0892F80538A3070F499
:1018C000F6FE05C0989C902C1124980E15C0E89C3B
:1018D000E02C1124E80EF0E2FF2A0EC09E3229F41B
:1018E000F6FC6BC140E4F42A07C09C3619F450E8BA
:1018F000F52A02C0983649F4F20123FD959123FFA1
:1019000091912F01992309F0B8CF892F8554833005
:1019100018F08052833038F444E050E0A40EB51E35
:101920005FE359830FC0933631F0933779F09335E5
:1019300009F056C020C0F5018081898342E050E063
:10194000A40EB51E610101E010E012C0F501C080D7
:10195000D180F6FC03C06FEF7FEF02C0692D70E00D
:1019600042E050E0A40EB51EC6010E94400F8C015B
:101970005FE7F52214C0F501C080D180F6FC03C0FA
:101980006FEF7FEF02C0692D70E042E050E0A40EDF
:10199000B51EC6010E942E0F8C0150E8F52AF3FEF9
:1019A00007C01AC080E290E0B3010E944B0FEA9496
:1019B0008E2D90E008171907A8F30EC0F601F7FC6A
:1019C0008591F7FE81916F0190E0B3010E944B0F6A
:1019D000E110EA94015010400115110579F7EAC0B1
:1019E000943611F0993669F5F7FE08C0F5012081AB
:1019F00031814281538184E090E00AC0F501808109
:101A000091819C01442737FD4095542F82E090E05E
:101A1000A80EB91E9FE6F92257FF09C050954095C0
:101A2000309521953F4F4F4F5F4FE0E8FE2ACA01A6
:101A3000B901A1012AE030E00E94770FD82ED21818
:101A400040C0953729F41F2D1F7E2AE030E01DC0CD
:101A50001F2D197F9F3661F0903720F4983509F0DB
:101A6000ACC00FC0903739F0983709F0A6C004C059
:101A700028E030E00AC0106114FD146020E130E07D
:101A800004C014FD166020E132E017FF08C0F50124
:101A9000608171818281938144E050E008C0F5014A
:101AA00080819181BC0180E090E042E050E0A40E92
:101AB000B51EA1010E94770FD82ED2188FE7F82EFD
:101AC000F122F6FE0BC05EEFF522D91438F4F4FED5
:101AD00007C0F2FC05C08FEEF82202C01D2D01C028
:101AE000192DF4FE0DC0FE01ED0DF11D8081803336
:101AF00019F499EEF92208C01F5FF2FE05C003C079
:101B00008F2D867809F01F5F0F2DF3FC14C0F0FEB7
:101B10000FC01E1510F09D2C0BC09D2C9E0C911A11
:101B20001E2D06C080E290E0B3010E944B0F1F5FA4
:101B30001E15C0F304C01E1510F4E11A01C0EE24F6
:101B400004FF0FC080E390E0B3010E944B0F02FF3F
:101B50001DC001FD03C088E790E00EC088E590E05D
:101B60000BC0802F867891F001FF02C08BE201C08C
:101B700080E2F7FC8DE290E0B3010E944B0F06C0BB
:101B800080E390E0B3010E944B0F9A94D914C0F304
:101B9000DA94F101ED0DF11D808190E0B3010E9416
:101BA0004B0FDD20A9F706C080E290E0B3010E9450
:101BB0004B0FEA94EE20C1F743CEF30166817781A3
:101BC000CB012B96E2E10C94F10FDC01CB01FC017F
:101BD000F999FECF06C0F2BDE1BDF89A319600B486
:101BE0000D9241505040B8F70895DC01CB0103C07D
:101BF0002D910E94000E41505040D0F70895262F9D
:101C0000F999FECF1FBA92BD81BD20BD0FB6F894E1
:101C1000FA9AF99A0FBE019608950F931F93CF93E6
:101C2000DF93689F8001699F100D789F100D11242C
:101C3000C8010E94290EEC01009729F060E070E0D5
:101C4000A8010E94390FCE01DF91CF911F910F9112
:101C50000895CF93DF93BC018230910510F462E0C8
:101C600070E0A0912605B0912705ED01E0E0F0E0DD
:101C700040E050E021C0888199818617970769F478
:101C80008A819B81309719F09383828304C090935B
:101C9000270580932605FE0134C06817790738F4BC
:101CA0004115510519F08417950708F4AC01FE01A0
:101CB0008A819B819C01E9012097E9F64115510534
:101CC000A9F1CA01861B970B049708F4BA01E0E05A
:101CD000F0E02AC08D919C91119784179507F9F433
:101CE0006417750781F412968D919C911397309724
:101CF00019F09383828304C090932705809326056F
:101D0000FD0132964FC0CA01861B970BFD01E80FFB
:101D1000F91F6193719302978D939C9343C0FD01CA
:101D2000828193819C01D9011097A1F680912405AD
:101D300090912505892B41F48091F6049091F70448
:101D400090932505809324054091F8045091F9045F
:101D50004115510541F44DB75EB78091F40490915F
:101D6000F504481B590B20912405309125052417B3
:101D70003507B0F4CA01821B930B8617970780F0D2
:101D8000AB014E5F5F4F8417950750F0420F531F12
:101D90005093250540932405F9016193719302C086
:101DA000E0E0F0E0CF01DF91CF910895CF93DF9392
:101DB000009709F450C0EC0122971B821A82A0916F
:101DC0002605B0912705109709F140E050E0AC17C7
:101DD000BD0708F1BB83AA83FE0121913191E20F77
:101DE000F31FAE17BF0779F48D919C911197280FBF
:101DF000391F2E5F3F4F3983288312968D919C9116
:101E000013979B838A834115510571F4D09327055D
:101E1000C093260520C012968D919C911397AD0119
:101E2000009711F0DC01D3CFFA01D383C283219153
:101E30003191E20FF31FCE17DF0769F48881998192
:101E4000280F391F2E5F3F4FFA01318320838A818B
:101E50009B8193838283DF91CF910895FC0105904C
:101E6000615070400110D8F7809590958E0F9F1F9C
:101E70000895DC0101C06D9341505040E0F7089592
:101E8000FC016150704001900110D8F78095909549
:101E90008E0F9F1F08950F931F93CF93DF938C0195
:101EA000EB018B8181FF1BC082FF0DC02E813F8122
:101EB0008C819D812817390764F4E881F9810193A9
:101EC000F983E88306C0E885F985802F0995892B79
:101ED00031F48E819F8101969F838E8302C00FEF24
:101EE0001FEFC801DF91CF911F910F910895FA0163
:101EF000AA27283051F1203181F1E8946F936E7F49
:101F00006E5F7F4F8F4F9F4FAF4FB1E03ED0B4E039
:101F10003CD0670F781F891F9A1FA11D680F791F7A
:101F20008A1F911DA11D6A0F711D811D911DA11D8B
:101F300020D009F468943F912AE0269F112430199B
:101F4000305D3193DEF6CF010895462F4770405D36
:101F50004193B3E00FD0C9F7F6CF462F4F70405DE5
:101F60004A3318F0495D31FD4052419302D0A9F740
:101F7000EACFB4E0A6959795879577956795BA953A
:101F8000C9F700976105710508959B01AC010A2E00
:101F900006945795479537952795BA95C9F7620FD7
:101FA000731F841F951FA01D08952F923F924F927B
:101FB0005F926F927F928F929F92AF92BF92CF92D9
:101FC000DF92EF92FF920F931F93CF93DF93CDB7E2
:101FD000DEB7CA1BDB0B0FB6F894DEBF0FBECDBF5A
:101FE00009942A88398848885F846E847D848C842B
:101FF0009B84AA84B984C884DF80EE80FD800C8134
:102000001B81AA81B981CE0FD11D0FB6F894DEBF16
:0C2010000FBECDBFED010895F894FFCF86
:10201C004D41494E2000464D20726164696F20731A
:10202C0074617274696E672E2E2E004C46555345A2
:10203C00203D20253032582C204846555345203D14
:10204C0020253032582C204546555345203D20251F
:10205C003032582C204C4F434B203D2025303258E9
:10206C000A004E45432049522052583A206164647C
:10207C0072657373203D20253032582C20636F6DB0
:10208C006D616E64203D20253032580A00436F6D1F
:10209C006D616E64203D20257320282564290A007B
:1020AC007374617475733A206672657175656E63CD
:1020BC00792025752E253032754D487A2C20737475
:1020CC006572656F2025752C2072737369202575D8
:1020DC002C2074756E656F6B2025752C20666D74C5
:1020EC007275652025752C20666D7265616479208A
:1020FC0025752C2074756E656661696C2025750AD2
:10210C000054574920005772697465206572726FCC
:10211C00722C2074777374203D20253032580A00BD
:10212C005772697465206572726F72204041444425
:10213C00522C2074777374203D20253032580A00BD
:10214C005772697465206572726F722040535441E6
:10215C0052542C2074777374203D20253032580A49
:10216C00005244413538303720007772697465006D
:10217C0073656E6420616464726573730057726971
:10218C007465206572726F7220406164647265734D
:10219C0073005772697465206572726F72204041CA
:1021AC004444522C2074777374203D2030782530B1
:1021BC0032580A0073656E642072656769737465C2
:1021CC0072730073746F700073746F707065640059
:1021DC0077726974655F7265672025750A0073688C
:1021EC007574646F776E00536574207374657265D3
:1021FC006F203D2025750A00466F7263696E67205B
:10220C006D6F6E6F0053657420766F6C756D652005
:10221C003D2025750A007365617263683A207570FC
:10222C00203D2025640A0054756E6520746F2025AE
:10223C00752E253032754D487A2C206368616E20DE
:10224C003D2025750A00696E697400434F4E46495E
:10225C00472000436F6E6669672073617665642C56
:10226C00206964203D2025750A004E6F20636F6E37
:10227C0066696720666F756E642C207573696E676E
:10228C002064656661756C7400436F6E66696720C7
:10229C006C6F616465642066726F6D20616464723A
:1022AC002025642C2066726571203D2025752C201C
:1022BC00766F6C203D2025750A00C8004E454320E2
:1022CC000049444C45203220636E74203D20256427
:1022DC000A0049444C45203320706F7274202564E9
:1022EC002C20636E742025640A0049444C4520342C
:1022FC0020636E742025750A0049525F4144445294
:10230C0020696E760049444C45203520636E74205C
:10231C0025750A005265636569766564206164649D
:10232C0072202530325820636D6420253032580AD3
:10233C00005265636569766564206164647220256A
:10234C0030325820636D6420253032582062757409
:10235C002052435620666C6167206973206E6F743F
:10236C0020636C65617265642C206576656E7420E3
:10237C0064726F707065640A005265636569766596
:10238C00642061646472202530325820636D6420AF
:10239C0025303258206275742052435620666C6189
:1023AC0067206973206E6F7420636C65617265645D
:1023BC000A0049444C45203620636E742025752054
:1023CC00626974732025640A0054554E452055509B
:1023DC00004F4E2F4F46460054554E4520444F5704
:1023EC004E00564F4C20555000564F4C20444F57E2
:1023FC004E0053544552454F20544F47474C4500CF
:0A240C003F3F3F00200028050000BC
:00000001FF
